{
	"contracts/vesting.sol": {
		"Vesting": {
			"abi": [
				{
					"inputs": [
						{
							"internalType": "address",
							"name": "_token",
							"type": "address"
						}
					],
					"stateMutability": "nonpayable",
					"type": "constructor"
				},
				{
					"inputs": [],
					"name": "amount",
					"outputs": [
						{
							"internalType": "uint256",
							"name": "",
							"type": "uint256"
						}
					],
					"stateMutability": "view",
					"type": "function"
				},
				{
					"inputs": [],
					"name": "claimed",
					"outputs": [
						{
							"internalType": "bool",
							"name": "",
							"type": "bool"
						}
					],
					"stateMutability": "view",
					"type": "function"
				},
				{
					"inputs": [
						{
							"internalType": "address",
							"name": "_from",
							"type": "address"
						},
						{
							"internalType": "address",
							"name": "_receiver",
							"type": "address"
						},
						{
							"internalType": "uint256",
							"name": "_amount",
							"type": "uint256"
						},
						{
							"internalType": "uint256",
							"name": "_expiry",
							"type": "uint256"
						}
					],
					"name": "close",
					"outputs": [],
					"stateMutability": "nonpayable",
					"type": "function"
				},
				{
					"inputs": [],
					"name": "expiry",
					"outputs": [
						{
							"internalType": "uint256",
							"name": "",
							"type": "uint256"
						}
					],
					"stateMutability": "view",
					"type": "function"
				},
				{
					"inputs": [],
					"name": "getTime",
					"outputs": [
						{
							"internalType": "uint256",
							"name": "",
							"type": "uint256"
						}
					],
					"stateMutability": "view",
					"type": "function"
				},
				{
					"inputs": [],
					"name": "locked",
					"outputs": [
						{
							"internalType": "bool",
							"name": "",
							"type": "bool"
						}
					],
					"stateMutability": "view",
					"type": "function"
				},
				{
					"inputs": [],
					"name": "receiver",
					"outputs": [
						{
							"internalType": "address",
							"name": "",
							"type": "address"
						}
					],
					"stateMutability": "view",
					"type": "function"
				},
				{
					"inputs": [],
					"name": "token",
					"outputs": [
						{
							"internalType": "contract IERC20",
							"name": "",
							"type": "address"
						}
					],
					"stateMutability": "view",
					"type": "function"
				},
				{
					"inputs": [],
					"name": "withdraw",
					"outputs": [],
					"stateMutability": "nonpayable",
					"type": "function"
				}
			],
			"devdoc": {
				"kind": "dev",
				"methods": {},
				"version": 1
			},
			"evm": {
				"assembly": "    /* \"contracts/vesting.sol\":151:1187  contract Vesting {... */\n  mstore(0x40, 0x80)\n    /* \"contracts/vesting.sol\":309:314  false */\n  0x00\n    /* \"contracts/vesting.sol\":287:314  bool public locked  = false */\n  0x04\n  exp(0x0100, 0x00)\n  dup2\n  sload\n  dup2\n  0xff\n  mul\n  not\n  and\n  swap1\n  dup4\n  iszero\n  iszero\n  mul\n  or\n  swap1\n  sstore\n  pop\n    /* \"contracts/vesting.sol\":343:348  false */\n  0x00\n    /* \"contracts/vesting.sol\":321:348  bool public claimed = false */\n  0x04\n  exp(0x0100, 0x01)\n  dup2\n  sload\n  dup2\n  0xff\n  mul\n  not\n  and\n  swap1\n  dup4\n  iszero\n  iszero\n  mul\n  or\n  swap1\n  sstore\n  pop\n    /* \"contracts/vesting.sol\":357:429  constructor (address _token) {... */\n  callvalue\n  dup1\n  iszero\n  tag_1\n  jumpi\n  0x00\n  dup1\n  revert\ntag_1:\n  pop\n  mload(0x40)\n  sub(codesize, bytecodeSize)\n  dup1\n  bytecodeSize\n  dup4\n  codecopy\n  dup2\n  dup2\n  add\n  0x40\n  mstore\n  dup2\n  add\n  swap1\n  tag_2\n  swap2\n  swap1\n  tag_3\n  jump\t// in\ntag_2:\n    /* \"contracts/vesting.sol\":414:420  _token */\n  dup1\n    /* \"contracts/vesting.sol\":399:404  token */\n  0x00\n  dup1\n    /* \"contracts/vesting.sol\":399:421  token = IERC20(_token) */\n  0x0100\n  exp\n  dup2\n  sload\n  dup2\n  0xffffffffffffffffffffffffffffffffffffffff\n  mul\n  not\n  and\n  swap1\n  dup4\n  0xffffffffffffffffffffffffffffffffffffffff\n  and\n  mul\n  or\n  swap1\n  sstore\n  pop\n    /* \"contracts/vesting.sol\":357:429  constructor (address _token) {... */\n  pop\n    /* \"contracts/vesting.sol\":151:1187  contract Vesting {... */\n  jump(tag_6)\n    /* \"#utility.yul\":88:205   */\ntag_8:\n    /* \"#utility.yul\":197:198   */\n  0x00\n    /* \"#utility.yul\":194:195   */\n  dup1\n    /* \"#utility.yul\":187:199   */\n  revert\n    /* \"#utility.yul\":334:460   */\ntag_10:\n    /* \"#utility.yul\":371:378   */\n  0x00\n    /* \"#utility.yul\":411:453   */\n  0xffffffffffffffffffffffffffffffffffffffff\n    /* \"#utility.yul\":404:409   */\n  dup3\n    /* \"#utility.yul\":400:454   */\n  and\n    /* \"#utility.yul\":389:454   */\n  swap1\n  pop\n    /* \"#utility.yul\":334:460   */\n  swap2\n  swap1\n  pop\n  jump\t// out\n    /* \"#utility.yul\":466:562   */\ntag_11:\n    /* \"#utility.yul\":503:510   */\n  0x00\n    /* \"#utility.yul\":532:556   */\n  tag_20\n    /* \"#utility.yul\":550:555   */\n  dup3\n    /* \"#utility.yul\":532:556   */\n  tag_10\n  jump\t// in\ntag_20:\n    /* \"#utility.yul\":521:556   */\n  swap1\n  pop\n    /* \"#utility.yul\":466:562   */\n  swap2\n  swap1\n  pop\n  jump\t// out\n    /* \"#utility.yul\":568:690   */\ntag_12:\n    /* \"#utility.yul\":641:665   */\n  tag_22\n    /* \"#utility.yul\":659:664   */\n  dup2\n    /* \"#utility.yul\":641:665   */\n  tag_11\n  jump\t// in\ntag_22:\n    /* \"#utility.yul\":634:639   */\n  dup2\n    /* \"#utility.yul\":631:666   */\n  eq\n    /* \"#utility.yul\":621:684   */\n  tag_23\n  jumpi\n    /* \"#utility.yul\":680:681   */\n  0x00\n    /* \"#utility.yul\":677:678   */\n  dup1\n    /* \"#utility.yul\":670:682   */\n  revert\n    /* \"#utility.yul\":621:684   */\ntag_23:\n    /* \"#utility.yul\":568:690   */\n  pop\n  jump\t// out\n    /* \"#utility.yul\":696:839   */\ntag_13:\n    /* \"#utility.yul\":753:758   */\n  0x00\n    /* \"#utility.yul\":784:790   */\n  dup2\n    /* \"#utility.yul\":778:791   */\n  mload\n    /* \"#utility.yul\":769:791   */\n  swap1\n  pop\n    /* \"#utility.yul\":800:833   */\n  tag_25\n    /* \"#utility.yul\":827:832   */\n  dup2\n    /* \"#utility.yul\":800:833   */\n  tag_12\n  jump\t// in\ntag_25:\n    /* \"#utility.yul\":696:839   */\n  swap3\n  swap2\n  pop\n  pop\n  jump\t// out\n    /* \"#utility.yul\":845:1196   */\ntag_3:\n    /* \"#utility.yul\":915:921   */\n  0x00\n    /* \"#utility.yul\":964:966   */\n  0x20\n    /* \"#utility.yul\":952:961   */\n  dup3\n    /* \"#utility.yul\":943:950   */\n  dup5\n    /* \"#utility.yul\":939:962   */\n  sub\n    /* \"#utility.yul\":935:967   */\n  slt\n    /* \"#utility.yul\":932:1051   */\n  iszero\n  tag_27\n  jumpi\n    /* \"#utility.yul\":970:1049   */\n  tag_28\n  tag_8\n  jump\t// in\ntag_28:\n    /* \"#utility.yul\":932:1051   */\ntag_27:\n    /* \"#utility.yul\":1090:1091   */\n  0x00\n    /* \"#utility.yul\":1115:1179   */\n  tag_29\n    /* \"#utility.yul\":1171:1178   */\n  dup5\n    /* \"#utility.yul\":1162:1168   */\n  dup3\n    /* \"#utility.yul\":1151:1160   */\n  dup6\n    /* \"#utility.yul\":1147:1169   */\n  add\n    /* \"#utility.yul\":1115:1179   */\n  tag_13\n  jump\t// in\ntag_29:\n    /* \"#utility.yul\":1105:1179   */\n  swap2\n  pop\n    /* \"#utility.yul\":1061:1189   */\n  pop\n    /* \"#utility.yul\":845:1196   */\n  swap3\n  swap2\n  pop\n  pop\n  jump\t// out\n    /* \"contracts/vesting.sol\":151:1187  contract Vesting {... */\ntag_6:\n  dataSize(sub_0)\n  dup1\n  dataOffset(sub_0)\n  0x00\n  codecopy\n  0x00\n  return\nstop\n\nsub_0: assembly {\n        /* \"contracts/vesting.sol\":151:1187  contract Vesting {... */\n      mstore(0x40, 0x80)\n      callvalue\n      dup1\n      iszero\n      tag_1\n      jumpi\n      0x00\n      dup1\n      revert\n    tag_1:\n      pop\n      jumpi(tag_2, lt(calldatasize, 0x04))\n      shr(0xe0, calldataload(0x00))\n      dup1\n      0xcf309012\n      gt\n      tag_12\n      jumpi\n      dup1\n      0xcf309012\n      eq\n      tag_7\n      jumpi\n      dup1\n      0xe184c9be\n      eq\n      tag_8\n      jumpi\n      dup1\n      0xe834a834\n      eq\n      tag_9\n      jumpi\n      dup1\n      0xf7260d3e\n      eq\n      tag_10\n      jumpi\n      dup1\n      0xfc0c546a\n      eq\n      tag_11\n      jumpi\n      jump(tag_2)\n    tag_12:\n      dup1\n      0x3c213108\n      eq\n      tag_3\n      jumpi\n      dup1\n      0x3ccfd60b\n      eq\n      tag_4\n      jumpi\n      dup1\n      0x557ed1ba\n      eq\n      tag_5\n      jumpi\n      dup1\n      0xaa8c217c\n      eq\n      tag_6\n      jumpi\n    tag_2:\n      0x00\n      dup1\n      revert\n        /* \"contracts/vesting.sol\":437:780  function close(address _from , address _receiver, uint256 _amount,uint256 _expiry ) external  {... */\n    tag_3:\n      tag_13\n      0x04\n      dup1\n      calldatasize\n      sub\n      dup2\n      add\n      swap1\n      tag_14\n      swap2\n      swap1\n      tag_15\n      jump\t// in\n    tag_14:\n      tag_16\n      jump\t// in\n    tag_13:\n      stop\n        /* \"contracts/vesting.sol\":788:1079  function withdraw() external {... */\n    tag_4:\n      tag_17\n      tag_18\n      jump\t// in\n    tag_17:\n      stop\n        /* \"contracts/vesting.sol\":1085:1181  function getTime() external view returns (uint256) {... */\n    tag_5:\n      tag_19\n      tag_20\n      jump\t// in\n    tag_19:\n      mload(0x40)\n      tag_21\n      swap2\n      swap1\n      tag_22\n      jump\t// in\n    tag_21:\n      mload(0x40)\n      dup1\n      swap2\n      sub\n      swap1\n      return\n        /* \"contracts/vesting.sol\":231:252  uint256 public amount */\n    tag_6:\n      tag_23\n      tag_24\n      jump\t// in\n    tag_23:\n      mload(0x40)\n      tag_25\n      swap2\n      swap1\n      tag_22\n      jump\t// in\n    tag_25:\n      mload(0x40)\n      dup1\n      swap2\n      sub\n      swap1\n      return\n        /* \"contracts/vesting.sol\":287:314  bool public locked  = false */\n    tag_7:\n      tag_26\n      tag_27\n      jump\t// in\n    tag_26:\n      mload(0x40)\n      tag_28\n      swap2\n      swap1\n      tag_29\n      jump\t// in\n    tag_28:\n      mload(0x40)\n      dup1\n      swap2\n      sub\n      swap1\n      return\n        /* \"contracts/vesting.sol\":259:280  uint256 public expiry */\n    tag_8:\n      tag_30\n      tag_31\n      jump\t// in\n    tag_30:\n      mload(0x40)\n      tag_32\n      swap2\n      swap1\n      tag_22\n      jump\t// in\n    tag_32:\n      mload(0x40)\n      dup1\n      swap2\n      sub\n      swap1\n      return\n        /* \"contracts/vesting.sol\":321:348  bool public claimed = false */\n    tag_9:\n      tag_33\n      tag_34\n      jump\t// in\n    tag_33:\n      mload(0x40)\n      tag_35\n      swap2\n      swap1\n      tag_29\n      jump\t// in\n    tag_35:\n      mload(0x40)\n      dup1\n      swap2\n      sub\n      swap1\n      return\n        /* \"contracts/vesting.sol\":201:224  address public receiver */\n    tag_10:\n      tag_36\n      tag_37\n      jump\t// in\n    tag_36:\n      mload(0x40)\n      tag_38\n      swap2\n      swap1\n      tag_39\n      jump\t// in\n    tag_38:\n      mload(0x40)\n      dup1\n      swap2\n      sub\n      swap1\n      return\n        /* \"contracts/vesting.sol\":175:194  IERC20 public token */\n    tag_11:\n      tag_40\n      tag_41\n      jump\t// in\n    tag_40:\n      mload(0x40)\n      tag_42\n      swap2\n      swap1\n      tag_43\n      jump\t// in\n    tag_42:\n      mload(0x40)\n      dup1\n      swap2\n      sub\n      swap1\n      return\n        /* \"contracts/vesting.sol\":437:780  function close(address _from , address _receiver, uint256 _amount,uint256 _expiry ) external  {... */\n    tag_16:\n        /* \"contracts/vesting.sol\":553:559  locked */\n      0x04\n      0x00\n      swap1\n      sload\n      swap1\n      0x0100\n      exp\n      swap1\n      div\n      0xff\n      and\n        /* \"contracts/vesting.sol\":552:559  !locked */\n      iszero\n        /* \"contracts/vesting.sol\":544:591  require(!locked,\"we have close token already \") */\n      tag_45\n      jumpi\n      mload(0x40)\n      0x08c379a000000000000000000000000000000000000000000000000000000000\n      dup2\n      mstore\n      0x04\n      add\n      tag_46\n      swap1\n      tag_47\n      jump\t// in\n    tag_46:\n      mload(0x40)\n      dup1\n      swap2\n      sub\n      swap1\n      revert\n    tag_45:\n        /* \"contracts/vesting.sol\":604:609  token */\n      0x00\n      dup1\n      sload\n      swap1\n      0x0100\n      exp\n      swap1\n      div\n      0xffffffffffffffffffffffffffffffffffffffff\n      and\n        /* \"contracts/vesting.sol\":604:622  token.transferFrom */\n      0xffffffffffffffffffffffffffffffffffffffff\n      and\n      0x23b872dd\n        /* \"contracts/vesting.sol\":623:628  _from */\n      dup6\n        /* \"contracts/vesting.sol\":638:642  this */\n      address\n        /* \"contracts/vesting.sol\":645:652  _amount */\n      dup6\n        /* \"contracts/vesting.sol\":604:653  token.transferFrom(_from, address(this), _amount) */\n      mload(0x40)\n      dup5\n      0xffffffff\n      and\n      0xe0\n      shl\n      dup2\n      mstore\n      0x04\n      add\n      tag_48\n      swap4\n      swap3\n      swap2\n      swap1\n      tag_49\n      jump\t// in\n    tag_48:\n      0x20\n      mload(0x40)\n      dup1\n      dup4\n      sub\n      dup2\n      0x00\n      dup8\n      gas\n      call\n      iszero\n      dup1\n      iszero\n      tag_51\n      jumpi\n      returndatasize\n      0x00\n      dup1\n      returndatacopy\n      revert(0x00, returndatasize)\n    tag_51:\n      pop\n      pop\n      pop\n      pop\n      mload(0x40)\n      returndatasize\n      not(0x1f)\n      0x1f\n      dup3\n      add\n      and\n      dup3\n      add\n      dup1\n      0x40\n      mstore\n      pop\n      dup2\n      add\n      swap1\n      tag_52\n      swap2\n      swap1\n      tag_53\n      jump\t// in\n    tag_52:\n      pop\n        /* \"contracts/vesting.sol\":678:687  _receiver */\n      dup3\n        /* \"contracts/vesting.sol\":667:675  receiver */\n      0x01\n      0x00\n        /* \"contracts/vesting.sol\":667:687  receiver = _receiver */\n      0x0100\n      exp\n      dup2\n      sload\n      dup2\n      0xffffffffffffffffffffffffffffffffffffffff\n      mul\n      not\n      and\n      swap1\n      dup4\n      0xffffffffffffffffffffffffffffffffffffffff\n      and\n      mul\n      or\n      swap1\n      sstore\n      pop\n        /* \"contracts/vesting.sol\":707:714  _amount */\n      dup2\n        /* \"contracts/vesting.sol\":698:704  amount */\n      0x02\n        /* \"contracts/vesting.sol\":698:714  amount = _amount */\n      dup2\n      swap1\n      sstore\n      pop\n        /* \"contracts/vesting.sol\":734:741  _expiry */\n      dup1\n        /* \"contracts/vesting.sol\":725:731  expiry */\n      0x03\n        /* \"contracts/vesting.sol\":725:741  expiry = _expiry */\n      dup2\n      swap1\n      sstore\n      pop\n        /* \"contracts/vesting.sol\":761:765  true */\n      0x01\n        /* \"contracts/vesting.sol\":752:758  locked */\n      0x04\n      0x00\n        /* \"contracts/vesting.sol\":752:765  locked = true */\n      0x0100\n      exp\n      dup2\n      sload\n      dup2\n      0xff\n      mul\n      not\n      and\n      swap1\n      dup4\n      iszero\n      iszero\n      mul\n      or\n      swap1\n      sstore\n      pop\n        /* \"contracts/vesting.sol\":437:780  function close(address _from , address _receiver, uint256 _amount,uint256 _expiry ) external  {... */\n      pop\n      pop\n      pop\n      pop\n      jump\t// out\n        /* \"contracts/vesting.sol\":788:1079  function withdraw() external {... */\n    tag_18:\n        /* \"contracts/vesting.sol\":836:842  locked */\n      0x04\n      0x00\n      swap1\n      sload\n      swap1\n      0x0100\n      exp\n      swap1\n      div\n      0xff\n      and\n        /* \"contracts/vesting.sol\":828:871  require(locked,\"Funds has been now locked\") */\n      tag_55\n      jumpi\n      mload(0x40)\n      0x08c379a000000000000000000000000000000000000000000000000000000000\n      dup2\n      mstore\n      0x04\n      add\n      tag_56\n      swap1\n      tag_57\n      jump\t// in\n    tag_56:\n      mload(0x40)\n      dup1\n      swap2\n      sub\n      swap1\n      revert\n    tag_55:\n        /* \"contracts/vesting.sol\":891:898  claimed */\n      0x04\n      0x01\n      swap1\n      sload\n      swap1\n      0x0100\n      exp\n      swap1\n      div\n      0xff\n      and\n        /* \"contracts/vesting.sol\":890:898  !claimed */\n      iszero\n        /* \"contracts/vesting.sol\":882:923  require(!claimed,\"token already claimed\") */\n      tag_58\n      jumpi\n      mload(0x40)\n      0x08c379a000000000000000000000000000000000000000000000000000000000\n      dup2\n      mstore\n      0x04\n      add\n      tag_59\n      swap1\n      tag_60\n      jump\t// in\n    tag_59:\n      mload(0x40)\n      dup1\n      swap2\n      sub\n      swap1\n      revert\n    tag_58:\n        /* \"contracts/vesting.sol\":960:966  expiry */\n      sload(0x03)\n        /* \"contracts/vesting.sol\":942:957  block.timestamp */\n      timestamp\n        /* \"contracts/vesting.sol\":942:966  block.timestamp > expiry */\n      gt\n        /* \"contracts/vesting.sol\":934:1000  require(block.timestamp > expiry ,\"token not have been  unlocked\") */\n      tag_61\n      jumpi\n      mload(0x40)\n      0x08c379a000000000000000000000000000000000000000000000000000000000\n      dup2\n      mstore\n      0x04\n      add\n      tag_62\n      swap1\n      tag_63\n      jump\t// in\n    tag_62:\n      mload(0x40)\n      dup1\n      swap2\n      sub\n      swap1\n      revert\n    tag_61:\n        /* \"contracts/vesting.sol\":1022:1026  true */\n      0x01\n        /* \"contracts/vesting.sol\":1011:1018  claimed */\n      0x04\n      0x01\n        /* \"contracts/vesting.sol\":1011:1026  claimed  = true */\n      0x0100\n      exp\n      dup2\n      sload\n      dup2\n      0xff\n      mul\n      not\n      and\n      swap1\n      dup4\n      iszero\n      iszero\n      mul\n      or\n      swap1\n      sstore\n      pop\n        /* \"contracts/vesting.sol\":1037:1042  token */\n      0x00\n      dup1\n      sload\n      swap1\n      0x0100\n      exp\n      swap1\n      div\n      0xffffffffffffffffffffffffffffffffffffffff\n      and\n        /* \"contracts/vesting.sol\":1037:1051  token.transfer */\n      0xffffffffffffffffffffffffffffffffffffffff\n      and\n      0xa9059cbb\n        /* \"contracts/vesting.sol\":1052:1060  receiver */\n      0x01\n      0x00\n      swap1\n      sload\n      swap1\n      0x0100\n      exp\n      swap1\n      div\n      0xffffffffffffffffffffffffffffffffffffffff\n      and\n        /* \"contracts/vesting.sol\":1061:1067  amount */\n      sload(0x02)\n        /* \"contracts/vesting.sol\":1037:1069  token.transfer(receiver,amount ) */\n      mload(0x40)\n      dup4\n      0xffffffff\n      and\n      0xe0\n      shl\n      dup2\n      mstore\n      0x04\n      add\n      tag_64\n      swap3\n      swap2\n      swap1\n      tag_65\n      jump\t// in\n    tag_64:\n      0x20\n      mload(0x40)\n      dup1\n      dup4\n      sub\n      dup2\n      0x00\n      dup8\n      gas\n      call\n      iszero\n      dup1\n      iszero\n      tag_67\n      jumpi\n      returndatasize\n      0x00\n      dup1\n      returndatacopy\n      revert(0x00, returndatasize)\n    tag_67:\n      pop\n      pop\n      pop\n      pop\n      mload(0x40)\n      returndatasize\n      not(0x1f)\n      0x1f\n      dup3\n      add\n      and\n      dup3\n      add\n      dup1\n      0x40\n      mstore\n      pop\n      dup2\n      add\n      swap1\n      tag_68\n      swap2\n      swap1\n      tag_53\n      jump\t// in\n    tag_68:\n      pop\n        /* \"contracts/vesting.sol\":788:1079  function withdraw() external {... */\n      jump\t// out\n        /* \"contracts/vesting.sol\":1085:1181  function getTime() external view returns (uint256) {... */\n    tag_20:\n        /* \"contracts/vesting.sol\":1127:1134  uint256 */\n      0x00\n        /* \"contracts/vesting.sol\":1154:1169  block.timestamp */\n      timestamp\n        /* \"contracts/vesting.sol\":1147:1169  return block.timestamp */\n      swap1\n      pop\n        /* \"contracts/vesting.sol\":1085:1181  function getTime() external view returns (uint256) {... */\n      swap1\n      jump\t// out\n        /* \"contracts/vesting.sol\":231:252  uint256 public amount */\n    tag_24:\n      sload(0x02)\n      dup2\n      jump\t// out\n        /* \"contracts/vesting.sol\":287:314  bool public locked  = false */\n    tag_27:\n      0x04\n      0x00\n      swap1\n      sload\n      swap1\n      0x0100\n      exp\n      swap1\n      div\n      0xff\n      and\n      dup2\n      jump\t// out\n        /* \"contracts/vesting.sol\":259:280  uint256 public expiry */\n    tag_31:\n      sload(0x03)\n      dup2\n      jump\t// out\n        /* \"contracts/vesting.sol\":321:348  bool public claimed = false */\n    tag_34:\n      0x04\n      0x01\n      swap1\n      sload\n      swap1\n      0x0100\n      exp\n      swap1\n      div\n      0xff\n      and\n      dup2\n      jump\t// out\n        /* \"contracts/vesting.sol\":201:224  address public receiver */\n    tag_37:\n      0x01\n      0x00\n      swap1\n      sload\n      swap1\n      0x0100\n      exp\n      swap1\n      div\n      0xffffffffffffffffffffffffffffffffffffffff\n      and\n      dup2\n      jump\t// out\n        /* \"contracts/vesting.sol\":175:194  IERC20 public token */\n    tag_41:\n      0x00\n      dup1\n      sload\n      swap1\n      0x0100\n      exp\n      swap1\n      div\n      0xffffffffffffffffffffffffffffffffffffffff\n      and\n      dup2\n      jump\t// out\n        /* \"#utility.yul\":88:205   */\n    tag_71:\n        /* \"#utility.yul\":197:198   */\n      0x00\n        /* \"#utility.yul\":194:195   */\n      dup1\n        /* \"#utility.yul\":187:199   */\n      revert\n        /* \"#utility.yul\":334:460   */\n    tag_73:\n        /* \"#utility.yul\":371:378   */\n      0x00\n        /* \"#utility.yul\":411:453   */\n      0xffffffffffffffffffffffffffffffffffffffff\n        /* \"#utility.yul\":404:409   */\n      dup3\n        /* \"#utility.yul\":400:454   */\n      and\n        /* \"#utility.yul\":389:454   */\n      swap1\n      pop\n        /* \"#utility.yul\":334:460   */\n      swap2\n      swap1\n      pop\n      jump\t// out\n        /* \"#utility.yul\":466:562   */\n    tag_74:\n        /* \"#utility.yul\":503:510   */\n      0x00\n        /* \"#utility.yul\":532:556   */\n      tag_106\n        /* \"#utility.yul\":550:555   */\n      dup3\n        /* \"#utility.yul\":532:556   */\n      tag_73\n      jump\t// in\n    tag_106:\n        /* \"#utility.yul\":521:556   */\n      swap1\n      pop\n        /* \"#utility.yul\":466:562   */\n      swap2\n      swap1\n      pop\n      jump\t// out\n        /* \"#utility.yul\":568:690   */\n    tag_75:\n        /* \"#utility.yul\":641:665   */\n      tag_108\n        /* \"#utility.yul\":659:664   */\n      dup2\n        /* \"#utility.yul\":641:665   */\n      tag_74\n      jump\t// in\n    tag_108:\n        /* \"#utility.yul\":634:639   */\n      dup2\n        /* \"#utility.yul\":631:666   */\n      eq\n        /* \"#utility.yul\":621:684   */\n      tag_109\n      jumpi\n        /* \"#utility.yul\":680:681   */\n      0x00\n        /* \"#utility.yul\":677:678   */\n      dup1\n        /* \"#utility.yul\":670:682   */\n      revert\n        /* \"#utility.yul\":621:684   */\n    tag_109:\n        /* \"#utility.yul\":568:690   */\n      pop\n      jump\t// out\n        /* \"#utility.yul\":696:835   */\n    tag_76:\n        /* \"#utility.yul\":742:747   */\n      0x00\n        /* \"#utility.yul\":780:786   */\n      dup2\n        /* \"#utility.yul\":767:787   */\n      calldataload\n        /* \"#utility.yul\":758:787   */\n      swap1\n      pop\n        /* \"#utility.yul\":796:829   */\n      tag_111\n        /* \"#utility.yul\":823:828   */\n      dup2\n        /* \"#utility.yul\":796:829   */\n      tag_75\n      jump\t// in\n    tag_111:\n        /* \"#utility.yul\":696:835   */\n      swap3\n      swap2\n      pop\n      pop\n      jump\t// out\n        /* \"#utility.yul\":841:918   */\n    tag_77:\n        /* \"#utility.yul\":878:885   */\n      0x00\n        /* \"#utility.yul\":907:912   */\n      dup2\n        /* \"#utility.yul\":896:912   */\n      swap1\n      pop\n        /* \"#utility.yul\":841:918   */\n      swap2\n      swap1\n      pop\n      jump\t// out\n        /* \"#utility.yul\":924:1046   */\n    tag_78:\n        /* \"#utility.yul\":997:1021   */\n      tag_114\n        /* \"#utility.yul\":1015:1020   */\n      dup2\n        /* \"#utility.yul\":997:1021   */\n      tag_77\n      jump\t// in\n    tag_114:\n        /* \"#utility.yul\":990:995   */\n      dup2\n        /* \"#utility.yul\":987:1022   */\n      eq\n        /* \"#utility.yul\":977:1040   */\n      tag_115\n      jumpi\n        /* \"#utility.yul\":1036:1037   */\n      0x00\n        /* \"#utility.yul\":1033:1034   */\n      dup1\n        /* \"#utility.yul\":1026:1038   */\n      revert\n        /* \"#utility.yul\":977:1040   */\n    tag_115:\n        /* \"#utility.yul\":924:1046   */\n      pop\n      jump\t// out\n        /* \"#utility.yul\":1052:1191   */\n    tag_79:\n        /* \"#utility.yul\":1098:1103   */\n      0x00\n        /* \"#utility.yul\":1136:1142   */\n      dup2\n        /* \"#utility.yul\":1123:1143   */\n      calldataload\n        /* \"#utility.yul\":1114:1143   */\n      swap1\n      pop\n        /* \"#utility.yul\":1152:1185   */\n      tag_117\n        /* \"#utility.yul\":1179:1184   */\n      dup2\n        /* \"#utility.yul\":1152:1185   */\n      tag_78\n      jump\t// in\n    tag_117:\n        /* \"#utility.yul\":1052:1191   */\n      swap3\n      swap2\n      pop\n      pop\n      jump\t// out\n        /* \"#utility.yul\":1197:1962   */\n    tag_15:\n        /* \"#utility.yul\":1283:1289   */\n      0x00\n        /* \"#utility.yul\":1291:1297   */\n      dup1\n        /* \"#utility.yul\":1299:1305   */\n      0x00\n        /* \"#utility.yul\":1307:1313   */\n      dup1\n        /* \"#utility.yul\":1356:1359   */\n      0x80\n        /* \"#utility.yul\":1344:1353   */\n      dup6\n        /* \"#utility.yul\":1335:1342   */\n      dup8\n        /* \"#utility.yul\":1331:1354   */\n      sub\n        /* \"#utility.yul\":1327:1360   */\n      slt\n        /* \"#utility.yul\":1324:1444   */\n      iszero\n      tag_119\n      jumpi\n        /* \"#utility.yul\":1363:1442   */\n      tag_120\n      tag_71\n      jump\t// in\n    tag_120:\n        /* \"#utility.yul\":1324:1444   */\n    tag_119:\n        /* \"#utility.yul\":1483:1484   */\n      0x00\n        /* \"#utility.yul\":1508:1561   */\n      tag_121\n        /* \"#utility.yul\":1553:1560   */\n      dup8\n        /* \"#utility.yul\":1544:1550   */\n      dup3\n        /* \"#utility.yul\":1533:1542   */\n      dup9\n        /* \"#utility.yul\":1529:1551   */\n      add\n        /* \"#utility.yul\":1508:1561   */\n      tag_76\n      jump\t// in\n    tag_121:\n        /* \"#utility.yul\":1498:1561   */\n      swap5\n      pop\n        /* \"#utility.yul\":1454:1571   */\n      pop\n        /* \"#utility.yul\":1610:1612   */\n      0x20\n        /* \"#utility.yul\":1636:1689   */\n      tag_122\n        /* \"#utility.yul\":1681:1688   */\n      dup8\n        /* \"#utility.yul\":1672:1678   */\n      dup3\n        /* \"#utility.yul\":1661:1670   */\n      dup9\n        /* \"#utility.yul\":1657:1679   */\n      add\n        /* \"#utility.yul\":1636:1689   */\n      tag_76\n      jump\t// in\n    tag_122:\n        /* \"#utility.yul\":1626:1689   */\n      swap4\n      pop\n        /* \"#utility.yul\":1581:1699   */\n      pop\n        /* \"#utility.yul\":1738:1740   */\n      0x40\n        /* \"#utility.yul\":1764:1817   */\n      tag_123\n        /* \"#utility.yul\":1809:1816   */\n      dup8\n        /* \"#utility.yul\":1800:1806   */\n      dup3\n        /* \"#utility.yul\":1789:1798   */\n      dup9\n        /* \"#utility.yul\":1785:1807   */\n      add\n        /* \"#utility.yul\":1764:1817   */\n      tag_79\n      jump\t// in\n    tag_123:\n        /* \"#utility.yul\":1754:1817   */\n      swap3\n      pop\n        /* \"#utility.yul\":1709:1827   */\n      pop\n        /* \"#utility.yul\":1866:1868   */\n      0x60\n        /* \"#utility.yul\":1892:1945   */\n      tag_124\n        /* \"#utility.yul\":1937:1944   */\n      dup8\n        /* \"#utility.yul\":1928:1934   */\n      dup3\n        /* \"#utility.yul\":1917:1926   */\n      dup9\n        /* \"#utility.yul\":1913:1935   */\n      add\n        /* \"#utility.yul\":1892:1945   */\n      tag_79\n      jump\t// in\n    tag_124:\n        /* \"#utility.yul\":1882:1945   */\n      swap2\n      pop\n        /* \"#utility.yul\":1837:1955   */\n      pop\n        /* \"#utility.yul\":1197:1962   */\n      swap3\n      swap6\n      swap2\n      swap5\n      pop\n      swap3\n      pop\n      jump\t// out\n        /* \"#utility.yul\":1968:2086   */\n    tag_80:\n        /* \"#utility.yul\":2055:2079   */\n      tag_126\n        /* \"#utility.yul\":2073:2078   */\n      dup2\n        /* \"#utility.yul\":2055:2079   */\n      tag_77\n      jump\t// in\n    tag_126:\n        /* \"#utility.yul\":2050:2053   */\n      dup3\n        /* \"#utility.yul\":2043:2080   */\n      mstore\n        /* \"#utility.yul\":1968:2086   */\n      pop\n      pop\n      jump\t// out\n        /* \"#utility.yul\":2092:2314   */\n    tag_22:\n        /* \"#utility.yul\":2185:2189   */\n      0x00\n        /* \"#utility.yul\":2223:2225   */\n      0x20\n        /* \"#utility.yul\":2212:2221   */\n      dup3\n        /* \"#utility.yul\":2208:2226   */\n      add\n        /* \"#utility.yul\":2200:2226   */\n      swap1\n      pop\n        /* \"#utility.yul\":2236:2307   */\n      tag_128\n        /* \"#utility.yul\":2304:2305   */\n      0x00\n        /* \"#utility.yul\":2293:2302   */\n      dup4\n        /* \"#utility.yul\":2289:2306   */\n      add\n        /* \"#utility.yul\":2280:2286   */\n      dup5\n        /* \"#utility.yul\":2236:2307   */\n      tag_80\n      jump\t// in\n    tag_128:\n        /* \"#utility.yul\":2092:2314   */\n      swap3\n      swap2\n      pop\n      pop\n      jump\t// out\n        /* \"#utility.yul\":2320:2410   */\n    tag_81:\n        /* \"#utility.yul\":2354:2361   */\n      0x00\n        /* \"#utility.yul\":2397:2402   */\n      dup2\n        /* \"#utility.yul\":2390:2403   */\n      iszero\n        /* \"#utility.yul\":2383:2404   */\n      iszero\n        /* \"#utility.yul\":2372:2404   */\n      swap1\n      pop\n        /* \"#utility.yul\":2320:2410   */\n      swap2\n      swap1\n      pop\n      jump\t// out\n        /* \"#utility.yul\":2416:2525   */\n    tag_82:\n        /* \"#utility.yul\":2497:2518   */\n      tag_131\n        /* \"#utility.yul\":2512:2517   */\n      dup2\n        /* \"#utility.yul\":2497:2518   */\n      tag_81\n      jump\t// in\n    tag_131:\n        /* \"#utility.yul\":2492:2495   */\n      dup3\n        /* \"#utility.yul\":2485:2519   */\n      mstore\n        /* \"#utility.yul\":2416:2525   */\n      pop\n      pop\n      jump\t// out\n        /* \"#utility.yul\":2531:2741   */\n    tag_29:\n        /* \"#utility.yul\":2618:2622   */\n      0x00\n        /* \"#utility.yul\":2656:2658   */\n      0x20\n        /* \"#utility.yul\":2645:2654   */\n      dup3\n        /* \"#utility.yul\":2641:2659   */\n      add\n        /* \"#utility.yul\":2633:2659   */\n      swap1\n      pop\n        /* \"#utility.yul\":2669:2734   */\n      tag_133\n        /* \"#utility.yul\":2731:2732   */\n      0x00\n        /* \"#utility.yul\":2720:2729   */\n      dup4\n        /* \"#utility.yul\":2716:2733   */\n      add\n        /* \"#utility.yul\":2707:2713   */\n      dup5\n        /* \"#utility.yul\":2669:2734   */\n      tag_82\n      jump\t// in\n    tag_133:\n        /* \"#utility.yul\":2531:2741   */\n      swap3\n      swap2\n      pop\n      pop\n      jump\t// out\n        /* \"#utility.yul\":2747:2865   */\n    tag_83:\n        /* \"#utility.yul\":2834:2858   */\n      tag_135\n        /* \"#utility.yul\":2852:2857   */\n      dup2\n        /* \"#utility.yul\":2834:2858   */\n      tag_74\n      jump\t// in\n    tag_135:\n        /* \"#utility.yul\":2829:2832   */\n      dup3\n        /* \"#utility.yul\":2822:2859   */\n      mstore\n        /* \"#utility.yul\":2747:2865   */\n      pop\n      pop\n      jump\t// out\n        /* \"#utility.yul\":2871:3093   */\n    tag_39:\n        /* \"#utility.yul\":2964:2968   */\n      0x00\n        /* \"#utility.yul\":3002:3004   */\n      0x20\n        /* \"#utility.yul\":2991:3000   */\n      dup3\n        /* \"#utility.yul\":2987:3005   */\n      add\n        /* \"#utility.yul\":2979:3005   */\n      swap1\n      pop\n        /* \"#utility.yul\":3015:3086   */\n      tag_137\n        /* \"#utility.yul\":3083:3084   */\n      0x00\n        /* \"#utility.yul\":3072:3081   */\n      dup4\n        /* \"#utility.yul\":3068:3085   */\n      add\n        /* \"#utility.yul\":3059:3065   */\n      dup5\n        /* \"#utility.yul\":3015:3086   */\n      tag_83\n      jump\t// in\n    tag_137:\n        /* \"#utility.yul\":2871:3093   */\n      swap3\n      swap2\n      pop\n      pop\n      jump\t// out\n        /* \"#utility.yul\":3099:3159   */\n    tag_84:\n        /* \"#utility.yul\":3127:3130   */\n      0x00\n        /* \"#utility.yul\":3148:3153   */\n      dup2\n        /* \"#utility.yul\":3141:3153   */\n      swap1\n      pop\n        /* \"#utility.yul\":3099:3159   */\n      swap2\n      swap1\n      pop\n      jump\t// out\n        /* \"#utility.yul\":3165:3307   */\n    tag_85:\n        /* \"#utility.yul\":3215:3224   */\n      0x00\n        /* \"#utility.yul\":3248:3301   */\n      tag_140\n        /* \"#utility.yul\":3266:3300   */\n      tag_141\n        /* \"#utility.yul\":3275:3299   */\n      tag_142\n        /* \"#utility.yul\":3293:3298   */\n      dup5\n        /* \"#utility.yul\":3275:3299   */\n      tag_73\n      jump\t// in\n    tag_142:\n        /* \"#utility.yul\":3266:3300   */\n      tag_84\n      jump\t// in\n    tag_141:\n        /* \"#utility.yul\":3248:3301   */\n      tag_73\n      jump\t// in\n    tag_140:\n        /* \"#utility.yul\":3235:3301   */\n      swap1\n      pop\n        /* \"#utility.yul\":3165:3307   */\n      swap2\n      swap1\n      pop\n      jump\t// out\n        /* \"#utility.yul\":3313:3439   */\n    tag_86:\n        /* \"#utility.yul\":3363:3372   */\n      0x00\n        /* \"#utility.yul\":3396:3433   */\n      tag_144\n        /* \"#utility.yul\":3427:3432   */\n      dup3\n        /* \"#utility.yul\":3396:3433   */\n      tag_85\n      jump\t// in\n    tag_144:\n        /* \"#utility.yul\":3383:3433   */\n      swap1\n      pop\n        /* \"#utility.yul\":3313:3439   */\n      swap2\n      swap1\n      pop\n      jump\t// out\n        /* \"#utility.yul\":3445:3584   */\n    tag_87:\n        /* \"#utility.yul\":3508:3517   */\n      0x00\n        /* \"#utility.yul\":3541:3578   */\n      tag_146\n        /* \"#utility.yul\":3572:3577   */\n      dup3\n        /* \"#utility.yul\":3541:3578   */\n      tag_86\n      jump\t// in\n    tag_146:\n        /* \"#utility.yul\":3528:3578   */\n      swap1\n      pop\n        /* \"#utility.yul\":3445:3584   */\n      swap2\n      swap1\n      pop\n      jump\t// out\n        /* \"#utility.yul\":3590:3747   */\n    tag_88:\n        /* \"#utility.yul\":3690:3740   */\n      tag_148\n        /* \"#utility.yul\":3734:3739   */\n      dup2\n        /* \"#utility.yul\":3690:3740   */\n      tag_87\n      jump\t// in\n    tag_148:\n        /* \"#utility.yul\":3685:3688   */\n      dup3\n        /* \"#utility.yul\":3678:3741   */\n      mstore\n        /* \"#utility.yul\":3590:3747   */\n      pop\n      pop\n      jump\t// out\n        /* \"#utility.yul\":3753:4001   */\n    tag_43:\n        /* \"#utility.yul\":3859:3863   */\n      0x00\n        /* \"#utility.yul\":3897:3899   */\n      0x20\n        /* \"#utility.yul\":3886:3895   */\n      dup3\n        /* \"#utility.yul\":3882:3900   */\n      add\n        /* \"#utility.yul\":3874:3900   */\n      swap1\n      pop\n        /* \"#utility.yul\":3910:3994   */\n      tag_150\n        /* \"#utility.yul\":3991:3992   */\n      0x00\n        /* \"#utility.yul\":3980:3989   */\n      dup4\n        /* \"#utility.yul\":3976:3993   */\n      add\n        /* \"#utility.yul\":3967:3973   */\n      dup5\n        /* \"#utility.yul\":3910:3994   */\n      tag_88\n      jump\t// in\n    tag_150:\n        /* \"#utility.yul\":3753:4001   */\n      swap3\n      swap2\n      pop\n      pop\n      jump\t// out\n        /* \"#utility.yul\":4007:4176   */\n    tag_89:\n        /* \"#utility.yul\":4091:4102   */\n      0x00\n        /* \"#utility.yul\":4125:4131   */\n      dup3\n        /* \"#utility.yul\":4120:4123   */\n      dup3\n        /* \"#utility.yul\":4113:4132   */\n      mstore\n        /* \"#utility.yul\":4165:4169   */\n      0x20\n        /* \"#utility.yul\":4160:4163   */\n      dup3\n        /* \"#utility.yul\":4156:4170   */\n      add\n        /* \"#utility.yul\":4141:4170   */\n      swap1\n      pop\n        /* \"#utility.yul\":4007:4176   */\n      swap3\n      swap2\n      pop\n      pop\n      jump\t// out\n        /* \"#utility.yul\":4182:4360   */\n    tag_90:\n        /* \"#utility.yul\":4322:4352   */\n      0x7765206861766520636c6f736520746f6b656e20616c72656164792000000000\n        /* \"#utility.yul\":4318:4319   */\n      0x00\n        /* \"#utility.yul\":4310:4316   */\n      dup3\n        /* \"#utility.yul\":4306:4320   */\n      add\n        /* \"#utility.yul\":4299:4353   */\n      mstore\n        /* \"#utility.yul\":4182:4360   */\n      pop\n      jump\t// out\n        /* \"#utility.yul\":4366:4732   */\n    tag_91:\n        /* \"#utility.yul\":4508:4511   */\n      0x00\n        /* \"#utility.yul\":4529:4596   */\n      tag_154\n        /* \"#utility.yul\":4593:4595   */\n      0x1c\n        /* \"#utility.yul\":4588:4591   */\n      dup4\n        /* \"#utility.yul\":4529:4596   */\n      tag_89\n      jump\t// in\n    tag_154:\n        /* \"#utility.yul\":4522:4596   */\n      swap2\n      pop\n        /* \"#utility.yul\":4605:4698   */\n      tag_155\n        /* \"#utility.yul\":4694:4697   */\n      dup3\n        /* \"#utility.yul\":4605:4698   */\n      tag_90\n      jump\t// in\n    tag_155:\n        /* \"#utility.yul\":4723:4725   */\n      0x20\n        /* \"#utility.yul\":4718:4721   */\n      dup3\n        /* \"#utility.yul\":4714:4726   */\n      add\n        /* \"#utility.yul\":4707:4726   */\n      swap1\n      pop\n        /* \"#utility.yul\":4366:4732   */\n      swap2\n      swap1\n      pop\n      jump\t// out\n        /* \"#utility.yul\":4738:5157   */\n    tag_47:\n        /* \"#utility.yul\":4904:4908   */\n      0x00\n        /* \"#utility.yul\":4942:4944   */\n      0x20\n        /* \"#utility.yul\":4931:4940   */\n      dup3\n        /* \"#utility.yul\":4927:4945   */\n      add\n        /* \"#utility.yul\":4919:4945   */\n      swap1\n      pop\n        /* \"#utility.yul\":4991:5000   */\n      dup2\n        /* \"#utility.yul\":4985:4989   */\n      dup2\n        /* \"#utility.yul\":4981:5001   */\n      sub\n        /* \"#utility.yul\":4977:4978   */\n      0x00\n        /* \"#utility.yul\":4966:4975   */\n      dup4\n        /* \"#utility.yul\":4962:4979   */\n      add\n        /* \"#utility.yul\":4955:5002   */\n      mstore\n        /* \"#utility.yul\":5019:5150   */\n      tag_157\n        /* \"#utility.yul\":5145:5149   */\n      dup2\n        /* \"#utility.yul\":5019:5150   */\n      tag_91\n      jump\t// in\n    tag_157:\n        /* \"#utility.yul\":5011:5150   */\n      swap1\n      pop\n        /* \"#utility.yul\":4738:5157   */\n      swap2\n      swap1\n      pop\n      jump\t// out\n        /* \"#utility.yul\":5163:5605   */\n    tag_49:\n        /* \"#utility.yul\":5312:5316   */\n      0x00\n        /* \"#utility.yul\":5350:5352   */\n      0x60\n        /* \"#utility.yul\":5339:5348   */\n      dup3\n        /* \"#utility.yul\":5335:5353   */\n      add\n        /* \"#utility.yul\":5327:5353   */\n      swap1\n      pop\n        /* \"#utility.yul\":5363:5434   */\n      tag_159\n        /* \"#utility.yul\":5431:5432   */\n      0x00\n        /* \"#utility.yul\":5420:5429   */\n      dup4\n        /* \"#utility.yul\":5416:5433   */\n      add\n        /* \"#utility.yul\":5407:5413   */\n      dup7\n        /* \"#utility.yul\":5363:5434   */\n      tag_83\n      jump\t// in\n    tag_159:\n        /* \"#utility.yul\":5444:5516   */\n      tag_160\n        /* \"#utility.yul\":5512:5514   */\n      0x20\n        /* \"#utility.yul\":5501:5510   */\n      dup4\n        /* \"#utility.yul\":5497:5515   */\n      add\n        /* \"#utility.yul\":5488:5494   */\n      dup6\n        /* \"#utility.yul\":5444:5516   */\n      tag_83\n      jump\t// in\n    tag_160:\n        /* \"#utility.yul\":5526:5598   */\n      tag_161\n        /* \"#utility.yul\":5594:5596   */\n      0x40\n        /* \"#utility.yul\":5583:5592   */\n      dup4\n        /* \"#utility.yul\":5579:5597   */\n      add\n        /* \"#utility.yul\":5570:5576   */\n      dup5\n        /* \"#utility.yul\":5526:5598   */\n      tag_80\n      jump\t// in\n    tag_161:\n        /* \"#utility.yul\":5163:5605   */\n      swap5\n      swap4\n      pop\n      pop\n      pop\n      pop\n      jump\t// out\n        /* \"#utility.yul\":5611:5727   */\n    tag_92:\n        /* \"#utility.yul\":5681:5702   */\n      tag_163\n        /* \"#utility.yul\":5696:5701   */\n      dup2\n        /* \"#utility.yul\":5681:5702   */\n      tag_81\n      jump\t// in\n    tag_163:\n        /* \"#utility.yul\":5674:5679   */\n      dup2\n        /* \"#utility.yul\":5671:5703   */\n      eq\n        /* \"#utility.yul\":5661:5721   */\n      tag_164\n      jumpi\n        /* \"#utility.yul\":5717:5718   */\n      0x00\n        /* \"#utility.yul\":5714:5715   */\n      dup1\n        /* \"#utility.yul\":5707:5719   */\n      revert\n        /* \"#utility.yul\":5661:5721   */\n    tag_164:\n        /* \"#utility.yul\":5611:5727   */\n      pop\n      jump\t// out\n        /* \"#utility.yul\":5733:5870   */\n    tag_93:\n        /* \"#utility.yul\":5787:5792   */\n      0x00\n        /* \"#utility.yul\":5818:5824   */\n      dup2\n        /* \"#utility.yul\":5812:5825   */\n      mload\n        /* \"#utility.yul\":5803:5825   */\n      swap1\n      pop\n        /* \"#utility.yul\":5834:5864   */\n      tag_166\n        /* \"#utility.yul\":5858:5863   */\n      dup2\n        /* \"#utility.yul\":5834:5864   */\n      tag_92\n      jump\t// in\n    tag_166:\n        /* \"#utility.yul\":5733:5870   */\n      swap3\n      swap2\n      pop\n      pop\n      jump\t// out\n        /* \"#utility.yul\":5876:6221   */\n    tag_53:\n        /* \"#utility.yul\":5943:5949   */\n      0x00\n        /* \"#utility.yul\":5992:5994   */\n      0x20\n        /* \"#utility.yul\":5980:5989   */\n      dup3\n        /* \"#utility.yul\":5971:5978   */\n      dup5\n        /* \"#utility.yul\":5967:5990   */\n      sub\n        /* \"#utility.yul\":5963:5995   */\n      slt\n        /* \"#utility.yul\":5960:6079   */\n      iszero\n      tag_168\n      jumpi\n        /* \"#utility.yul\":5998:6077   */\n      tag_169\n      tag_71\n      jump\t// in\n    tag_169:\n        /* \"#utility.yul\":5960:6079   */\n    tag_168:\n        /* \"#utility.yul\":6118:6119   */\n      0x00\n        /* \"#utility.yul\":6143:6204   */\n      tag_170\n        /* \"#utility.yul\":6196:6203   */\n      dup5\n        /* \"#utility.yul\":6187:6193   */\n      dup3\n        /* \"#utility.yul\":6176:6185   */\n      dup6\n        /* \"#utility.yul\":6172:6194   */\n      add\n        /* \"#utility.yul\":6143:6204   */\n      tag_93\n      jump\t// in\n    tag_170:\n        /* \"#utility.yul\":6133:6204   */\n      swap2\n      pop\n        /* \"#utility.yul\":6089:6214   */\n      pop\n        /* \"#utility.yul\":5876:6221   */\n      swap3\n      swap2\n      pop\n      pop\n      jump\t// out\n        /* \"#utility.yul\":6227:6402   */\n    tag_94:\n        /* \"#utility.yul\":6367:6394   */\n      0x46756e647320686173206265656e206e6f77206c6f636b656400000000000000\n        /* \"#utility.yul\":6363:6364   */\n      0x00\n        /* \"#utility.yul\":6355:6361   */\n      dup3\n        /* \"#utility.yul\":6351:6365   */\n      add\n        /* \"#utility.yul\":6344:6395   */\n      mstore\n        /* \"#utility.yul\":6227:6402   */\n      pop\n      jump\t// out\n        /* \"#utility.yul\":6408:6774   */\n    tag_95:\n        /* \"#utility.yul\":6550:6553   */\n      0x00\n        /* \"#utility.yul\":6571:6638   */\n      tag_173\n        /* \"#utility.yul\":6635:6637   */\n      0x19\n        /* \"#utility.yul\":6630:6633   */\n      dup4\n        /* \"#utility.yul\":6571:6638   */\n      tag_89\n      jump\t// in\n    tag_173:\n        /* \"#utility.yul\":6564:6638   */\n      swap2\n      pop\n        /* \"#utility.yul\":6647:6740   */\n      tag_174\n        /* \"#utility.yul\":6736:6739   */\n      dup3\n        /* \"#utility.yul\":6647:6740   */\n      tag_94\n      jump\t// in\n    tag_174:\n        /* \"#utility.yul\":6765:6767   */\n      0x20\n        /* \"#utility.yul\":6760:6763   */\n      dup3\n        /* \"#utility.yul\":6756:6768   */\n      add\n        /* \"#utility.yul\":6749:6768   */\n      swap1\n      pop\n        /* \"#utility.yul\":6408:6774   */\n      swap2\n      swap1\n      pop\n      jump\t// out\n        /* \"#utility.yul\":6780:7199   */\n    tag_57:\n        /* \"#utility.yul\":6946:6950   */\n      0x00\n        /* \"#utility.yul\":6984:6986   */\n      0x20\n        /* \"#utility.yul\":6973:6982   */\n      dup3\n        /* \"#utility.yul\":6969:6987   */\n      add\n        /* \"#utility.yul\":6961:6987   */\n      swap1\n      pop\n        /* \"#utility.yul\":7033:7042   */\n      dup2\n        /* \"#utility.yul\":7027:7031   */\n      dup2\n        /* \"#utility.yul\":7023:7043   */\n      sub\n        /* \"#utility.yul\":7019:7020   */\n      0x00\n        /* \"#utility.yul\":7008:7017   */\n      dup4\n        /* \"#utility.yul\":7004:7021   */\n      add\n        /* \"#utility.yul\":6997:7044   */\n      mstore\n        /* \"#utility.yul\":7061:7192   */\n      tag_176\n        /* \"#utility.yul\":7187:7191   */\n      dup2\n        /* \"#utility.yul\":7061:7192   */\n      tag_95\n      jump\t// in\n    tag_176:\n        /* \"#utility.yul\":7053:7192   */\n      swap1\n      pop\n        /* \"#utility.yul\":6780:7199   */\n      swap2\n      swap1\n      pop\n      jump\t// out\n        /* \"#utility.yul\":7205:7376   */\n    tag_96:\n        /* \"#utility.yul\":7345:7368   */\n      0x746f6b656e20616c726561647920636c61696d65640000000000000000000000\n        /* \"#utility.yul\":7341:7342   */\n      0x00\n        /* \"#utility.yul\":7333:7339   */\n      dup3\n        /* \"#utility.yul\":7329:7343   */\n      add\n        /* \"#utility.yul\":7322:7369   */\n      mstore\n        /* \"#utility.yul\":7205:7376   */\n      pop\n      jump\t// out\n        /* \"#utility.yul\":7382:7748   */\n    tag_97:\n        /* \"#utility.yul\":7524:7527   */\n      0x00\n        /* \"#utility.yul\":7545:7612   */\n      tag_179\n        /* \"#utility.yul\":7609:7611   */\n      0x15\n        /* \"#utility.yul\":7604:7607   */\n      dup4\n        /* \"#utility.yul\":7545:7612   */\n      tag_89\n      jump\t// in\n    tag_179:\n        /* \"#utility.yul\":7538:7612   */\n      swap2\n      pop\n        /* \"#utility.yul\":7621:7714   */\n      tag_180\n        /* \"#utility.yul\":7710:7713   */\n      dup3\n        /* \"#utility.yul\":7621:7714   */\n      tag_96\n      jump\t// in\n    tag_180:\n        /* \"#utility.yul\":7739:7741   */\n      0x20\n        /* \"#utility.yul\":7734:7737   */\n      dup3\n        /* \"#utility.yul\":7730:7742   */\n      add\n        /* \"#utility.yul\":7723:7742   */\n      swap1\n      pop\n        /* \"#utility.yul\":7382:7748   */\n      swap2\n      swap1\n      pop\n      jump\t// out\n        /* \"#utility.yul\":7754:8173   */\n    tag_60:\n        /* \"#utility.yul\":7920:7924   */\n      0x00\n        /* \"#utility.yul\":7958:7960   */\n      0x20\n        /* \"#utility.yul\":7947:7956   */\n      dup3\n        /* \"#utility.yul\":7943:7961   */\n      add\n        /* \"#utility.yul\":7935:7961   */\n      swap1\n      pop\n        /* \"#utility.yul\":8007:8016   */\n      dup2\n        /* \"#utility.yul\":8001:8005   */\n      dup2\n        /* \"#utility.yul\":7997:8017   */\n      sub\n        /* \"#utility.yul\":7993:7994   */\n      0x00\n        /* \"#utility.yul\":7982:7991   */\n      dup4\n        /* \"#utility.yul\":7978:7995   */\n      add\n        /* \"#utility.yul\":7971:8018   */\n      mstore\n        /* \"#utility.yul\":8035:8166   */\n      tag_182\n        /* \"#utility.yul\":8161:8165   */\n      dup2\n        /* \"#utility.yul\":8035:8166   */\n      tag_97\n      jump\t// in\n    tag_182:\n        /* \"#utility.yul\":8027:8166   */\n      swap1\n      pop\n        /* \"#utility.yul\":7754:8173   */\n      swap2\n      swap1\n      pop\n      jump\t// out\n        /* \"#utility.yul\":8179:8358   */\n    tag_98:\n        /* \"#utility.yul\":8319:8350   */\n      0x746f6b656e206e6f742068617665206265656e2020756e6c6f636b6564000000\n        /* \"#utility.yul\":8315:8316   */\n      0x00\n        /* \"#utility.yul\":8307:8313   */\n      dup3\n        /* \"#utility.yul\":8303:8317   */\n      add\n        /* \"#utility.yul\":8296:8351   */\n      mstore\n        /* \"#utility.yul\":8179:8358   */\n      pop\n      jump\t// out\n        /* \"#utility.yul\":8364:8730   */\n    tag_99:\n        /* \"#utility.yul\":8506:8509   */\n      0x00\n        /* \"#utility.yul\":8527:8594   */\n      tag_185\n        /* \"#utility.yul\":8591:8593   */\n      0x1d\n        /* \"#utility.yul\":8586:8589   */\n      dup4\n        /* \"#utility.yul\":8527:8594   */\n      tag_89\n      jump\t// in\n    tag_185:\n        /* \"#utility.yul\":8520:8594   */\n      swap2\n      pop\n        /* \"#utility.yul\":8603:8696   */\n      tag_186\n        /* \"#utility.yul\":8692:8695   */\n      dup3\n        /* \"#utility.yul\":8603:8696   */\n      tag_98\n      jump\t// in\n    tag_186:\n        /* \"#utility.yul\":8721:8723   */\n      0x20\n        /* \"#utility.yul\":8716:8719   */\n      dup3\n        /* \"#utility.yul\":8712:8724   */\n      add\n        /* \"#utility.yul\":8705:8724   */\n      swap1\n      pop\n        /* \"#utility.yul\":8364:8730   */\n      swap2\n      swap1\n      pop\n      jump\t// out\n        /* \"#utility.yul\":8736:9155   */\n    tag_63:\n        /* \"#utility.yul\":8902:8906   */\n      0x00\n        /* \"#utility.yul\":8940:8942   */\n      0x20\n        /* \"#utility.yul\":8929:8938   */\n      dup3\n        /* \"#utility.yul\":8925:8943   */\n      add\n        /* \"#utility.yul\":8917:8943   */\n      swap1\n      pop\n        /* \"#utility.yul\":8989:8998   */\n      dup2\n        /* \"#utility.yul\":8983:8987   */\n      dup2\n        /* \"#utility.yul\":8979:8999   */\n      sub\n        /* \"#utility.yul\":8975:8976   */\n      0x00\n        /* \"#utility.yul\":8964:8973   */\n      dup4\n        /* \"#utility.yul\":8960:8977   */\n      add\n        /* \"#utility.yul\":8953:9000   */\n      mstore\n        /* \"#utility.yul\":9017:9148   */\n      tag_188\n        /* \"#utility.yul\":9143:9147   */\n      dup2\n        /* \"#utility.yul\":9017:9148   */\n      tag_99\n      jump\t// in\n    tag_188:\n        /* \"#utility.yul\":9009:9148   */\n      swap1\n      pop\n        /* \"#utility.yul\":8736:9155   */\n      swap2\n      swap1\n      pop\n      jump\t// out\n        /* \"#utility.yul\":9161:9493   */\n    tag_65:\n        /* \"#utility.yul\":9282:9286   */\n      0x00\n        /* \"#utility.yul\":9320:9322   */\n      0x40\n        /* \"#utility.yul\":9309:9318   */\n      dup3\n        /* \"#utility.yul\":9305:9323   */\n      add\n        /* \"#utility.yul\":9297:9323   */\n      swap1\n      pop\n        /* \"#utility.yul\":9333:9404   */\n      tag_190\n        /* \"#utility.yul\":9401:9402   */\n      0x00\n        /* \"#utility.yul\":9390:9399   */\n      dup4\n        /* \"#utility.yul\":9386:9403   */\n      add\n        /* \"#utility.yul\":9377:9383   */\n      dup6\n        /* \"#utility.yul\":9333:9404   */\n      tag_83\n      jump\t// in\n    tag_190:\n        /* \"#utility.yul\":9414:9486   */\n      tag_191\n        /* \"#utility.yul\":9482:9484   */\n      0x20\n        /* \"#utility.yul\":9471:9480   */\n      dup4\n        /* \"#utility.yul\":9467:9485   */\n      add\n        /* \"#utility.yul\":9458:9464   */\n      dup5\n        /* \"#utility.yul\":9414:9486   */\n      tag_80\n      jump\t// in\n    tag_191:\n        /* \"#utility.yul\":9161:9493   */\n      swap4\n      swap3\n      pop\n      pop\n      pop\n      jump\t// out\n\n    auxdata: 0xa26469706673582212202bc56cf9c5ba9704a36b95ac1378cade024532e7606e5b1bffd88e706a03abe464736f6c63430008120033\n}\n",
				"bytecode": {
					"linkReferences": {},
					"object": "60806040526000600460006101000a81548160ff0219169083151502179055506000600460016101000a81548160ff02191690831515021790555034801561004657600080fd5b50604051610b39380380610b3983398181016040528101906100689190610111565b806000806101000a81548173ffffffffffffffffffffffffffffffffffffffff021916908373ffffffffffffffffffffffffffffffffffffffff1602179055505061013e565b600080fd5b600073ffffffffffffffffffffffffffffffffffffffff82169050919050565b60006100de826100b3565b9050919050565b6100ee816100d3565b81146100f957600080fd5b50565b60008151905061010b816100e5565b92915050565b600060208284031215610127576101266100ae565b5b6000610135848285016100fc565b91505092915050565b6109ec8061014d6000396000f3fe608060405234801561001057600080fd5b50600436106100935760003560e01c8063cf30901211610066578063cf309012146100fa578063e184c9be14610118578063e834a83414610136578063f7260d3e14610154578063fc0c546a1461017257610093565b80633c213108146100985780633ccfd60b146100b4578063557ed1ba146100be578063aa8c217c146100dc575b600080fd5b6100b260048036038101906100ad91906105d1565b610190565b005b6100bc6102f1565b005b6100c66104b4565b6040516100d39190610647565b60405180910390f35b6100e46104bc565b6040516100f19190610647565b60405180910390f35b6101026104c2565b60405161010f919061067d565b60405180910390f35b6101206104d5565b60405161012d9190610647565b60405180910390f35b61013e6104db565b60405161014b919061067d565b60405180910390f35b61015c6104ee565b60405161016991906106a7565b60405180910390f35b61017a610514565b6040516101879190610721565b60405180910390f35b600460009054906101000a900460ff16156101e0576040517f08c379a00000000000000000000000000000000000000000000000000000000081526004016101d790610799565b60405180910390fd5b60008054906101000a900473ffffffffffffffffffffffffffffffffffffffff1673ffffffffffffffffffffffffffffffffffffffff166323b872dd8530856040518463ffffffff1660e01b815260040161023d939291906107b9565b6020604051808303816000875af115801561025c573d6000803e3d6000fd5b505050506040513d601f19601f82011682018060405250810190610280919061081c565b5082600160006101000a81548173ffffffffffffffffffffffffffffffffffffffff021916908373ffffffffffffffffffffffffffffffffffffffff16021790555081600281905550806003819055506001600460006101000a81548160ff02191690831515021790555050505050565b600460009054906101000a900460ff16610340576040517f08c379a000000000000000000000000000000000000000000000000000000000815260040161033790610895565b60405180910390fd5b600460019054906101000a900460ff1615610390576040517f08c379a000000000000000000000000000000000000000000000000000000000815260040161038790610901565b60405180910390fd5b60035442116103d4576040517f08c379a00000000000000000000000000000000000000000000000000000000081526004016103cb9061096d565b60405180910390fd5b6001600460016101000a81548160ff02191690831515021790555060008054906101000a900473ffffffffffffffffffffffffffffffffffffffff1673ffffffffffffffffffffffffffffffffffffffff1663a9059cbb600160009054906101000a900473ffffffffffffffffffffffffffffffffffffffff166002546040518363ffffffff1660e01b815260040161046e92919061098d565b6020604051808303816000875af115801561048d573d6000803e3d6000fd5b505050506040513d601f19601f820116820180604052508101906104b1919061081c565b50565b600042905090565b60025481565b600460009054906101000a900460ff1681565b60035481565b600460019054906101000a900460ff1681565b600160009054906101000a900473ffffffffffffffffffffffffffffffffffffffff1681565b60008054906101000a900473ffffffffffffffffffffffffffffffffffffffff1681565b600080fd5b600073ffffffffffffffffffffffffffffffffffffffff82169050919050565b60006105688261053d565b9050919050565b6105788161055d565b811461058357600080fd5b50565b6000813590506105958161056f565b92915050565b6000819050919050565b6105ae8161059b565b81146105b957600080fd5b50565b6000813590506105cb816105a5565b92915050565b600080600080608085870312156105eb576105ea610538565b5b60006105f987828801610586565b945050602061060a87828801610586565b935050604061061b878288016105bc565b925050606061062c878288016105bc565b91505092959194509250565b6106418161059b565b82525050565b600060208201905061065c6000830184610638565b92915050565b60008115159050919050565b61067781610662565b82525050565b6000602082019050610692600083018461066e565b92915050565b6106a18161055d565b82525050565b60006020820190506106bc6000830184610698565b92915050565b6000819050919050565b60006106e76106e26106dd8461053d565b6106c2565b61053d565b9050919050565b60006106f9826106cc565b9050919050565b600061070b826106ee565b9050919050565b61071b81610700565b82525050565b60006020820190506107366000830184610712565b92915050565b600082825260208201905092915050565b7f7765206861766520636c6f736520746f6b656e20616c72656164792000000000600082015250565b6000610783601c8361073c565b915061078e8261074d565b602082019050919050565b600060208201905081810360008301526107b281610776565b9050919050565b60006060820190506107ce6000830186610698565b6107db6020830185610698565b6107e86040830184610638565b949350505050565b6107f981610662565b811461080457600080fd5b50565b600081519050610816816107f0565b92915050565b60006020828403121561083257610831610538565b5b600061084084828501610807565b91505092915050565b7f46756e647320686173206265656e206e6f77206c6f636b656400000000000000600082015250565b600061087f60198361073c565b915061088a82610849565b602082019050919050565b600060208201905081810360008301526108ae81610872565b9050919050565b7f746f6b656e20616c726561647920636c61696d65640000000000000000000000600082015250565b60006108eb60158361073c565b91506108f6826108b5565b602082019050919050565b6000602082019050818103600083015261091a816108de565b9050919050565b7f746f6b656e206e6f742068617665206265656e2020756e6c6f636b6564000000600082015250565b6000610957601d8361073c565b915061096282610921565b602082019050919050565b600060208201905081810360008301526109868161094a565b9050919050565b60006040820190506109a26000830185610698565b6109af6020830184610638565b939250505056fea26469706673582212202bc56cf9c5ba9704a36b95ac1378cade024532e7606e5b1bffd88e706a03abe464736f6c63430008120033",
					"opcodes": "PUSH1 0x80 PUSH1 0x40 MSTORE PUSH1 0x0 PUSH1 0x4 PUSH1 0x0 PUSH2 0x100 EXP DUP2 SLOAD DUP2 PUSH1 0xFF MUL NOT AND SWAP1 DUP4 ISZERO ISZERO MUL OR SWAP1 SSTORE POP PUSH1 0x0 PUSH1 0x4 PUSH1 0x1 PUSH2 0x100 EXP DUP2 SLOAD DUP2 PUSH1 0xFF MUL NOT AND SWAP1 DUP4 ISZERO ISZERO MUL OR SWAP1 SSTORE POP CALLVALUE DUP1 ISZERO PUSH2 0x46 JUMPI PUSH1 0x0 DUP1 REVERT JUMPDEST POP PUSH1 0x40 MLOAD PUSH2 0xB39 CODESIZE SUB DUP1 PUSH2 0xB39 DUP4 CODECOPY DUP2 DUP2 ADD PUSH1 0x40 MSTORE DUP2 ADD SWAP1 PUSH2 0x68 SWAP2 SWAP1 PUSH2 0x111 JUMP JUMPDEST DUP1 PUSH1 0x0 DUP1 PUSH2 0x100 EXP DUP2 SLOAD DUP2 PUSH20 0xFFFFFFFFFFFFFFFFFFFFFFFFFFFFFFFFFFFFFFFF MUL NOT AND SWAP1 DUP4 PUSH20 0xFFFFFFFFFFFFFFFFFFFFFFFFFFFFFFFFFFFFFFFF AND MUL OR SWAP1 SSTORE POP POP PUSH2 0x13E JUMP JUMPDEST PUSH1 0x0 DUP1 REVERT JUMPDEST PUSH1 0x0 PUSH20 0xFFFFFFFFFFFFFFFFFFFFFFFFFFFFFFFFFFFFFFFF DUP3 AND SWAP1 POP SWAP2 SWAP1 POP JUMP JUMPDEST PUSH1 0x0 PUSH2 0xDE DUP3 PUSH2 0xB3 JUMP JUMPDEST SWAP1 POP SWAP2 SWAP1 POP JUMP JUMPDEST PUSH2 0xEE DUP2 PUSH2 0xD3 JUMP JUMPDEST DUP2 EQ PUSH2 0xF9 JUMPI PUSH1 0x0 DUP1 REVERT JUMPDEST POP JUMP JUMPDEST PUSH1 0x0 DUP2 MLOAD SWAP1 POP PUSH2 0x10B DUP2 PUSH2 0xE5 JUMP JUMPDEST SWAP3 SWAP2 POP POP JUMP JUMPDEST PUSH1 0x0 PUSH1 0x20 DUP3 DUP5 SUB SLT ISZERO PUSH2 0x127 JUMPI PUSH2 0x126 PUSH2 0xAE JUMP JUMPDEST JUMPDEST PUSH1 0x0 PUSH2 0x135 DUP5 DUP3 DUP6 ADD PUSH2 0xFC JUMP JUMPDEST SWAP2 POP POP SWAP3 SWAP2 POP POP JUMP JUMPDEST PUSH2 0x9EC DUP1 PUSH2 0x14D PUSH1 0x0 CODECOPY PUSH1 0x0 RETURN INVALID PUSH1 0x80 PUSH1 0x40 MSTORE CALLVALUE DUP1 ISZERO PUSH2 0x10 JUMPI PUSH1 0x0 DUP1 REVERT JUMPDEST POP PUSH1 0x4 CALLDATASIZE LT PUSH2 0x93 JUMPI PUSH1 0x0 CALLDATALOAD PUSH1 0xE0 SHR DUP1 PUSH4 0xCF309012 GT PUSH2 0x66 JUMPI DUP1 PUSH4 0xCF309012 EQ PUSH2 0xFA JUMPI DUP1 PUSH4 0xE184C9BE EQ PUSH2 0x118 JUMPI DUP1 PUSH4 0xE834A834 EQ PUSH2 0x136 JUMPI DUP1 PUSH4 0xF7260D3E EQ PUSH2 0x154 JUMPI DUP1 PUSH4 0xFC0C546A EQ PUSH2 0x172 JUMPI PUSH2 0x93 JUMP JUMPDEST DUP1 PUSH4 0x3C213108 EQ PUSH2 0x98 JUMPI DUP1 PUSH4 0x3CCFD60B EQ PUSH2 0xB4 JUMPI DUP1 PUSH4 0x557ED1BA EQ PUSH2 0xBE JUMPI DUP1 PUSH4 0xAA8C217C EQ PUSH2 0xDC JUMPI JUMPDEST PUSH1 0x0 DUP1 REVERT JUMPDEST PUSH2 0xB2 PUSH1 0x4 DUP1 CALLDATASIZE SUB DUP2 ADD SWAP1 PUSH2 0xAD SWAP2 SWAP1 PUSH2 0x5D1 JUMP JUMPDEST PUSH2 0x190 JUMP JUMPDEST STOP JUMPDEST PUSH2 0xBC PUSH2 0x2F1 JUMP JUMPDEST STOP JUMPDEST PUSH2 0xC6 PUSH2 0x4B4 JUMP JUMPDEST PUSH1 0x40 MLOAD PUSH2 0xD3 SWAP2 SWAP1 PUSH2 0x647 JUMP JUMPDEST PUSH1 0x40 MLOAD DUP1 SWAP2 SUB SWAP1 RETURN JUMPDEST PUSH2 0xE4 PUSH2 0x4BC JUMP JUMPDEST PUSH1 0x40 MLOAD PUSH2 0xF1 SWAP2 SWAP1 PUSH2 0x647 JUMP JUMPDEST PUSH1 0x40 MLOAD DUP1 SWAP2 SUB SWAP1 RETURN JUMPDEST PUSH2 0x102 PUSH2 0x4C2 JUMP JUMPDEST PUSH1 0x40 MLOAD PUSH2 0x10F SWAP2 SWAP1 PUSH2 0x67D JUMP JUMPDEST PUSH1 0x40 MLOAD DUP1 SWAP2 SUB SWAP1 RETURN JUMPDEST PUSH2 0x120 PUSH2 0x4D5 JUMP JUMPDEST PUSH1 0x40 MLOAD PUSH2 0x12D SWAP2 SWAP1 PUSH2 0x647 JUMP JUMPDEST PUSH1 0x40 MLOAD DUP1 SWAP2 SUB SWAP1 RETURN JUMPDEST PUSH2 0x13E PUSH2 0x4DB JUMP JUMPDEST PUSH1 0x40 MLOAD PUSH2 0x14B SWAP2 SWAP1 PUSH2 0x67D JUMP JUMPDEST PUSH1 0x40 MLOAD DUP1 SWAP2 SUB SWAP1 RETURN JUMPDEST PUSH2 0x15C PUSH2 0x4EE JUMP JUMPDEST PUSH1 0x40 MLOAD PUSH2 0x169 SWAP2 SWAP1 PUSH2 0x6A7 JUMP JUMPDEST PUSH1 0x40 MLOAD DUP1 SWAP2 SUB SWAP1 RETURN JUMPDEST PUSH2 0x17A PUSH2 0x514 JUMP JUMPDEST PUSH1 0x40 MLOAD PUSH2 0x187 SWAP2 SWAP1 PUSH2 0x721 JUMP JUMPDEST PUSH1 0x40 MLOAD DUP1 SWAP2 SUB SWAP1 RETURN JUMPDEST PUSH1 0x4 PUSH1 0x0 SWAP1 SLOAD SWAP1 PUSH2 0x100 EXP SWAP1 DIV PUSH1 0xFF AND ISZERO PUSH2 0x1E0 JUMPI PUSH1 0x40 MLOAD PUSH32 0x8C379A000000000000000000000000000000000000000000000000000000000 DUP2 MSTORE PUSH1 0x4 ADD PUSH2 0x1D7 SWAP1 PUSH2 0x799 JUMP JUMPDEST PUSH1 0x40 MLOAD DUP1 SWAP2 SUB SWAP1 REVERT JUMPDEST PUSH1 0x0 DUP1 SLOAD SWAP1 PUSH2 0x100 EXP SWAP1 DIV PUSH20 0xFFFFFFFFFFFFFFFFFFFFFFFFFFFFFFFFFFFFFFFF AND PUSH20 0xFFFFFFFFFFFFFFFFFFFFFFFFFFFFFFFFFFFFFFFF AND PUSH4 0x23B872DD DUP6 ADDRESS DUP6 PUSH1 0x40 MLOAD DUP5 PUSH4 0xFFFFFFFF AND PUSH1 0xE0 SHL DUP2 MSTORE PUSH1 0x4 ADD PUSH2 0x23D SWAP4 SWAP3 SWAP2 SWAP1 PUSH2 0x7B9 JUMP JUMPDEST PUSH1 0x20 PUSH1 0x40 MLOAD DUP1 DUP4 SUB DUP2 PUSH1 0x0 DUP8 GAS CALL ISZERO DUP1 ISZERO PUSH2 0x25C JUMPI RETURNDATASIZE PUSH1 0x0 DUP1 RETURNDATACOPY RETURNDATASIZE PUSH1 0x0 REVERT JUMPDEST POP POP POP POP PUSH1 0x40 MLOAD RETURNDATASIZE PUSH1 0x1F NOT PUSH1 0x1F DUP3 ADD AND DUP3 ADD DUP1 PUSH1 0x40 MSTORE POP DUP2 ADD SWAP1 PUSH2 0x280 SWAP2 SWAP1 PUSH2 0x81C JUMP JUMPDEST POP DUP3 PUSH1 0x1 PUSH1 0x0 PUSH2 0x100 EXP DUP2 SLOAD DUP2 PUSH20 0xFFFFFFFFFFFFFFFFFFFFFFFFFFFFFFFFFFFFFFFF MUL NOT AND SWAP1 DUP4 PUSH20 0xFFFFFFFFFFFFFFFFFFFFFFFFFFFFFFFFFFFFFFFF AND MUL OR SWAP1 SSTORE POP DUP2 PUSH1 0x2 DUP2 SWAP1 SSTORE POP DUP1 PUSH1 0x3 DUP2 SWAP1 SSTORE POP PUSH1 0x1 PUSH1 0x4 PUSH1 0x0 PUSH2 0x100 EXP DUP2 SLOAD DUP2 PUSH1 0xFF MUL NOT AND SWAP1 DUP4 ISZERO ISZERO MUL OR SWAP1 SSTORE POP POP POP POP POP JUMP JUMPDEST PUSH1 0x4 PUSH1 0x0 SWAP1 SLOAD SWAP1 PUSH2 0x100 EXP SWAP1 DIV PUSH1 0xFF AND PUSH2 0x340 JUMPI PUSH1 0x40 MLOAD PUSH32 0x8C379A000000000000000000000000000000000000000000000000000000000 DUP2 MSTORE PUSH1 0x4 ADD PUSH2 0x337 SWAP1 PUSH2 0x895 JUMP JUMPDEST PUSH1 0x40 MLOAD DUP1 SWAP2 SUB SWAP1 REVERT JUMPDEST PUSH1 0x4 PUSH1 0x1 SWAP1 SLOAD SWAP1 PUSH2 0x100 EXP SWAP1 DIV PUSH1 0xFF AND ISZERO PUSH2 0x390 JUMPI PUSH1 0x40 MLOAD PUSH32 0x8C379A000000000000000000000000000000000000000000000000000000000 DUP2 MSTORE PUSH1 0x4 ADD PUSH2 0x387 SWAP1 PUSH2 0x901 JUMP JUMPDEST PUSH1 0x40 MLOAD DUP1 SWAP2 SUB SWAP1 REVERT JUMPDEST PUSH1 0x3 SLOAD TIMESTAMP GT PUSH2 0x3D4 JUMPI PUSH1 0x40 MLOAD PUSH32 0x8C379A000000000000000000000000000000000000000000000000000000000 DUP2 MSTORE PUSH1 0x4 ADD PUSH2 0x3CB SWAP1 PUSH2 0x96D JUMP JUMPDEST PUSH1 0x40 MLOAD DUP1 SWAP2 SUB SWAP1 REVERT JUMPDEST PUSH1 0x1 PUSH1 0x4 PUSH1 0x1 PUSH2 0x100 EXP DUP2 SLOAD DUP2 PUSH1 0xFF MUL NOT AND SWAP1 DUP4 ISZERO ISZERO MUL OR SWAP1 SSTORE POP PUSH1 0x0 DUP1 SLOAD SWAP1 PUSH2 0x100 EXP SWAP1 DIV PUSH20 0xFFFFFFFFFFFFFFFFFFFFFFFFFFFFFFFFFFFFFFFF AND PUSH20 0xFFFFFFFFFFFFFFFFFFFFFFFFFFFFFFFFFFFFFFFF AND PUSH4 0xA9059CBB PUSH1 0x1 PUSH1 0x0 SWAP1 SLOAD SWAP1 PUSH2 0x100 EXP SWAP1 DIV PUSH20 0xFFFFFFFFFFFFFFFFFFFFFFFFFFFFFFFFFFFFFFFF AND PUSH1 0x2 SLOAD PUSH1 0x40 MLOAD DUP4 PUSH4 0xFFFFFFFF AND PUSH1 0xE0 SHL DUP2 MSTORE PUSH1 0x4 ADD PUSH2 0x46E SWAP3 SWAP2 SWAP1 PUSH2 0x98D JUMP JUMPDEST PUSH1 0x20 PUSH1 0x40 MLOAD DUP1 DUP4 SUB DUP2 PUSH1 0x0 DUP8 GAS CALL ISZERO DUP1 ISZERO PUSH2 0x48D JUMPI RETURNDATASIZE PUSH1 0x0 DUP1 RETURNDATACOPY RETURNDATASIZE PUSH1 0x0 REVERT JUMPDEST POP POP POP POP PUSH1 0x40 MLOAD RETURNDATASIZE PUSH1 0x1F NOT PUSH1 0x1F DUP3 ADD AND DUP3 ADD DUP1 PUSH1 0x40 MSTORE POP DUP2 ADD SWAP1 PUSH2 0x4B1 SWAP2 SWAP1 PUSH2 0x81C JUMP JUMPDEST POP JUMP JUMPDEST PUSH1 0x0 TIMESTAMP SWAP1 POP SWAP1 JUMP JUMPDEST PUSH1 0x2 SLOAD DUP2 JUMP JUMPDEST PUSH1 0x4 PUSH1 0x0 SWAP1 SLOAD SWAP1 PUSH2 0x100 EXP SWAP1 DIV PUSH1 0xFF AND DUP2 JUMP JUMPDEST PUSH1 0x3 SLOAD DUP2 JUMP JUMPDEST PUSH1 0x4 PUSH1 0x1 SWAP1 SLOAD SWAP1 PUSH2 0x100 EXP SWAP1 DIV PUSH1 0xFF AND DUP2 JUMP JUMPDEST PUSH1 0x1 PUSH1 0x0 SWAP1 SLOAD SWAP1 PUSH2 0x100 EXP SWAP1 DIV PUSH20 0xFFFFFFFFFFFFFFFFFFFFFFFFFFFFFFFFFFFFFFFF AND DUP2 JUMP JUMPDEST PUSH1 0x0 DUP1 SLOAD SWAP1 PUSH2 0x100 EXP SWAP1 DIV PUSH20 0xFFFFFFFFFFFFFFFFFFFFFFFFFFFFFFFFFFFFFFFF AND DUP2 JUMP JUMPDEST PUSH1 0x0 DUP1 REVERT JUMPDEST PUSH1 0x0 PUSH20 0xFFFFFFFFFFFFFFFFFFFFFFFFFFFFFFFFFFFFFFFF DUP3 AND SWAP1 POP SWAP2 SWAP1 POP JUMP JUMPDEST PUSH1 0x0 PUSH2 0x568 DUP3 PUSH2 0x53D JUMP JUMPDEST SWAP1 POP SWAP2 SWAP1 POP JUMP JUMPDEST PUSH2 0x578 DUP2 PUSH2 0x55D JUMP JUMPDEST DUP2 EQ PUSH2 0x583 JUMPI PUSH1 0x0 DUP1 REVERT JUMPDEST POP JUMP JUMPDEST PUSH1 0x0 DUP2 CALLDATALOAD SWAP1 POP PUSH2 0x595 DUP2 PUSH2 0x56F JUMP JUMPDEST SWAP3 SWAP2 POP POP JUMP JUMPDEST PUSH1 0x0 DUP2 SWAP1 POP SWAP2 SWAP1 POP JUMP JUMPDEST PUSH2 0x5AE DUP2 PUSH2 0x59B JUMP JUMPDEST DUP2 EQ PUSH2 0x5B9 JUMPI PUSH1 0x0 DUP1 REVERT JUMPDEST POP JUMP JUMPDEST PUSH1 0x0 DUP2 CALLDATALOAD SWAP1 POP PUSH2 0x5CB DUP2 PUSH2 0x5A5 JUMP JUMPDEST SWAP3 SWAP2 POP POP JUMP JUMPDEST PUSH1 0x0 DUP1 PUSH1 0x0 DUP1 PUSH1 0x80 DUP6 DUP8 SUB SLT ISZERO PUSH2 0x5EB JUMPI PUSH2 0x5EA PUSH2 0x538 JUMP JUMPDEST JUMPDEST PUSH1 0x0 PUSH2 0x5F9 DUP8 DUP3 DUP9 ADD PUSH2 0x586 JUMP JUMPDEST SWAP5 POP POP PUSH1 0x20 PUSH2 0x60A DUP8 DUP3 DUP9 ADD PUSH2 0x586 JUMP JUMPDEST SWAP4 POP POP PUSH1 0x40 PUSH2 0x61B DUP8 DUP3 DUP9 ADD PUSH2 0x5BC JUMP JUMPDEST SWAP3 POP POP PUSH1 0x60 PUSH2 0x62C DUP8 DUP3 DUP9 ADD PUSH2 0x5BC JUMP JUMPDEST SWAP2 POP POP SWAP3 SWAP6 SWAP2 SWAP5 POP SWAP3 POP JUMP JUMPDEST PUSH2 0x641 DUP2 PUSH2 0x59B JUMP JUMPDEST DUP3 MSTORE POP POP JUMP JUMPDEST PUSH1 0x0 PUSH1 0x20 DUP3 ADD SWAP1 POP PUSH2 0x65C PUSH1 0x0 DUP4 ADD DUP5 PUSH2 0x638 JUMP JUMPDEST SWAP3 SWAP2 POP POP JUMP JUMPDEST PUSH1 0x0 DUP2 ISZERO ISZERO SWAP1 POP SWAP2 SWAP1 POP JUMP JUMPDEST PUSH2 0x677 DUP2 PUSH2 0x662 JUMP JUMPDEST DUP3 MSTORE POP POP JUMP JUMPDEST PUSH1 0x0 PUSH1 0x20 DUP3 ADD SWAP1 POP PUSH2 0x692 PUSH1 0x0 DUP4 ADD DUP5 PUSH2 0x66E JUMP JUMPDEST SWAP3 SWAP2 POP POP JUMP JUMPDEST PUSH2 0x6A1 DUP2 PUSH2 0x55D JUMP JUMPDEST DUP3 MSTORE POP POP JUMP JUMPDEST PUSH1 0x0 PUSH1 0x20 DUP3 ADD SWAP1 POP PUSH2 0x6BC PUSH1 0x0 DUP4 ADD DUP5 PUSH2 0x698 JUMP JUMPDEST SWAP3 SWAP2 POP POP JUMP JUMPDEST PUSH1 0x0 DUP2 SWAP1 POP SWAP2 SWAP1 POP JUMP JUMPDEST PUSH1 0x0 PUSH2 0x6E7 PUSH2 0x6E2 PUSH2 0x6DD DUP5 PUSH2 0x53D JUMP JUMPDEST PUSH2 0x6C2 JUMP JUMPDEST PUSH2 0x53D JUMP JUMPDEST SWAP1 POP SWAP2 SWAP1 POP JUMP JUMPDEST PUSH1 0x0 PUSH2 0x6F9 DUP3 PUSH2 0x6CC JUMP JUMPDEST SWAP1 POP SWAP2 SWAP1 POP JUMP JUMPDEST PUSH1 0x0 PUSH2 0x70B DUP3 PUSH2 0x6EE JUMP JUMPDEST SWAP1 POP SWAP2 SWAP1 POP JUMP JUMPDEST PUSH2 0x71B DUP2 PUSH2 0x700 JUMP JUMPDEST DUP3 MSTORE POP POP JUMP JUMPDEST PUSH1 0x0 PUSH1 0x20 DUP3 ADD SWAP1 POP PUSH2 0x736 PUSH1 0x0 DUP4 ADD DUP5 PUSH2 0x712 JUMP JUMPDEST SWAP3 SWAP2 POP POP JUMP JUMPDEST PUSH1 0x0 DUP3 DUP3 MSTORE PUSH1 0x20 DUP3 ADD SWAP1 POP SWAP3 SWAP2 POP POP JUMP JUMPDEST PUSH32 0x7765206861766520636C6F736520746F6B656E20616C72656164792000000000 PUSH1 0x0 DUP3 ADD MSTORE POP JUMP JUMPDEST PUSH1 0x0 PUSH2 0x783 PUSH1 0x1C DUP4 PUSH2 0x73C JUMP JUMPDEST SWAP2 POP PUSH2 0x78E DUP3 PUSH2 0x74D JUMP JUMPDEST PUSH1 0x20 DUP3 ADD SWAP1 POP SWAP2 SWAP1 POP JUMP JUMPDEST PUSH1 0x0 PUSH1 0x20 DUP3 ADD SWAP1 POP DUP2 DUP2 SUB PUSH1 0x0 DUP4 ADD MSTORE PUSH2 0x7B2 DUP2 PUSH2 0x776 JUMP JUMPDEST SWAP1 POP SWAP2 SWAP1 POP JUMP JUMPDEST PUSH1 0x0 PUSH1 0x60 DUP3 ADD SWAP1 POP PUSH2 0x7CE PUSH1 0x0 DUP4 ADD DUP7 PUSH2 0x698 JUMP JUMPDEST PUSH2 0x7DB PUSH1 0x20 DUP4 ADD DUP6 PUSH2 0x698 JUMP JUMPDEST PUSH2 0x7E8 PUSH1 0x40 DUP4 ADD DUP5 PUSH2 0x638 JUMP JUMPDEST SWAP5 SWAP4 POP POP POP POP JUMP JUMPDEST PUSH2 0x7F9 DUP2 PUSH2 0x662 JUMP JUMPDEST DUP2 EQ PUSH2 0x804 JUMPI PUSH1 0x0 DUP1 REVERT JUMPDEST POP JUMP JUMPDEST PUSH1 0x0 DUP2 MLOAD SWAP1 POP PUSH2 0x816 DUP2 PUSH2 0x7F0 JUMP JUMPDEST SWAP3 SWAP2 POP POP JUMP JUMPDEST PUSH1 0x0 PUSH1 0x20 DUP3 DUP5 SUB SLT ISZERO PUSH2 0x832 JUMPI PUSH2 0x831 PUSH2 0x538 JUMP JUMPDEST JUMPDEST PUSH1 0x0 PUSH2 0x840 DUP5 DUP3 DUP6 ADD PUSH2 0x807 JUMP JUMPDEST SWAP2 POP POP SWAP3 SWAP2 POP POP JUMP JUMPDEST PUSH32 0x46756E647320686173206265656E206E6F77206C6F636B656400000000000000 PUSH1 0x0 DUP3 ADD MSTORE POP JUMP JUMPDEST PUSH1 0x0 PUSH2 0x87F PUSH1 0x19 DUP4 PUSH2 0x73C JUMP JUMPDEST SWAP2 POP PUSH2 0x88A DUP3 PUSH2 0x849 JUMP JUMPDEST PUSH1 0x20 DUP3 ADD SWAP1 POP SWAP2 SWAP1 POP JUMP JUMPDEST PUSH1 0x0 PUSH1 0x20 DUP3 ADD SWAP1 POP DUP2 DUP2 SUB PUSH1 0x0 DUP4 ADD MSTORE PUSH2 0x8AE DUP2 PUSH2 0x872 JUMP JUMPDEST SWAP1 POP SWAP2 SWAP1 POP JUMP JUMPDEST PUSH32 0x746F6B656E20616C726561647920636C61696D65640000000000000000000000 PUSH1 0x0 DUP3 ADD MSTORE POP JUMP JUMPDEST PUSH1 0x0 PUSH2 0x8EB PUSH1 0x15 DUP4 PUSH2 0x73C JUMP JUMPDEST SWAP2 POP PUSH2 0x8F6 DUP3 PUSH2 0x8B5 JUMP JUMPDEST PUSH1 0x20 DUP3 ADD SWAP1 POP SWAP2 SWAP1 POP JUMP JUMPDEST PUSH1 0x0 PUSH1 0x20 DUP3 ADD SWAP1 POP DUP2 DUP2 SUB PUSH1 0x0 DUP4 ADD MSTORE PUSH2 0x91A DUP2 PUSH2 0x8DE JUMP JUMPDEST SWAP1 POP SWAP2 SWAP1 POP JUMP JUMPDEST PUSH32 0x746F6B656E206E6F742068617665206265656E2020756E6C6F636B6564000000 PUSH1 0x0 DUP3 ADD MSTORE POP JUMP JUMPDEST PUSH1 0x0 PUSH2 0x957 PUSH1 0x1D DUP4 PUSH2 0x73C JUMP JUMPDEST SWAP2 POP PUSH2 0x962 DUP3 PUSH2 0x921 JUMP JUMPDEST PUSH1 0x20 DUP3 ADD SWAP1 POP SWAP2 SWAP1 POP JUMP JUMPDEST PUSH1 0x0 PUSH1 0x20 DUP3 ADD SWAP1 POP DUP2 DUP2 SUB PUSH1 0x0 DUP4 ADD MSTORE PUSH2 0x986 DUP2 PUSH2 0x94A JUMP JUMPDEST SWAP1 POP SWAP2 SWAP1 POP JUMP JUMPDEST PUSH1 0x0 PUSH1 0x40 DUP3 ADD SWAP1 POP PUSH2 0x9A2 PUSH1 0x0 DUP4 ADD DUP6 PUSH2 0x698 JUMP JUMPDEST PUSH2 0x9AF PUSH1 0x20 DUP4 ADD DUP5 PUSH2 0x638 JUMP JUMPDEST SWAP4 SWAP3 POP POP POP JUMP INVALID LOG2 PUSH5 0x6970667358 0x22 SLT KECCAK256 0x2B 0xC5 PUSH13 0xF9C5BA9704A36B95AC1378CADE MUL GASLIMIT ORIGIN 0xE7 PUSH1 0x6E JUMPDEST SHL SELFDESTRUCT 0xD8 DUP15 PUSH17 0x6A03ABE464736F6C634300081200330000 "
				},
				"gasEstimates": {
					"creation": {
						"codeDepositCost": "508000",
						"executionCost": "infinite",
						"totalCost": "infinite"
					},
					"external": {
						"amount()": "2496",
						"claimed()": "2565",
						"close(address,address,uint256,uint256)": "infinite",
						"expiry()": "2451",
						"getTime()": "381",
						"locked()": "2471",
						"receiver()": "2580",
						"token()": "infinite",
						"withdraw()": "infinite"
					}
				},
				"methodIdentifiers": {
					"amount()": "aa8c217c",
					"claimed()": "e834a834",
					"close(address,address,uint256,uint256)": "3c213108",
					"expiry()": "e184c9be",
					"getTime()": "557ed1ba",
					"locked()": "cf309012",
					"receiver()": "f7260d3e",
					"token()": "fc0c546a",
					"withdraw()": "3ccfd60b"
				}
			},
			"storageLayout": {
				"storage": [
					{
						"astId": 83,
						"contract": "contracts/vesting.sol:Vesting",
						"label": "token",
						"offset": 0,
						"slot": "0",
						"type": "t_contract(IERC20)77"
					},
					{
						"astId": 85,
						"contract": "contracts/vesting.sol:Vesting",
						"label": "receiver",
						"offset": 0,
						"slot": "1",
						"type": "t_address"
					},
					{
						"astId": 87,
						"contract": "contracts/vesting.sol:Vesting",
						"label": "amount",
						"offset": 0,
						"slot": "2",
						"type": "t_uint256"
					},
					{
						"astId": 89,
						"contract": "contracts/vesting.sol:Vesting",
						"label": "expiry",
						"offset": 0,
						"slot": "3",
						"type": "t_uint256"
					},
					{
						"astId": 92,
						"contract": "contracts/vesting.sol:Vesting",
						"label": "locked",
						"offset": 0,
						"slot": "4",
						"type": "t_bool"
					},
					{
						"astId": 95,
						"contract": "contracts/vesting.sol:Vesting",
						"label": "claimed",
						"offset": 1,
						"slot": "4",
						"type": "t_bool"
					}
				],
				"types": {
					"t_address": {
						"encoding": "inplace",
						"label": "address",
						"numberOfBytes": "20"
					},
					"t_bool": {
						"encoding": "inplace",
						"label": "bool",
						"numberOfBytes": "1"
					},
					"t_contract(IERC20)77": {
						"encoding": "inplace",
						"label": "contract IERC20",
						"numberOfBytes": "20"
					},
					"t_uint256": {
						"encoding": "inplace",
						"label": "uint256",
						"numberOfBytes": "32"
					}
				}
			},
			"userdoc": {
				"kind": "user",
				"methods": {},
				"version": 1
			}
		}
	}
}